:020000040800F2
:100000007808002039020008F71C00088D19000844
:10001000F51C0008510500086921000800000000D7
:10002000000000000000000000000000FB1C0008B1
:100030005305000800000000F91C0008FD1C000822
:10004000530200085302000853020008530200083C
:10005000530200085302000853020008530200082C
:10006000530200085302000853020008530200081C
:10007000530200085302000853020008530200080C
:100080005302000853020008530200080000000059
:100090000000000000000000000000005302000803
:1000A00053020008530200085302000853020008DC
:1000B00053020008530200085302000853020008CC
:1000C00053020008530200085302000853020008BC
:1000D0005302000853020008530200080000000009
:1000E00053020008530200085302000800000000F9
:1000F00000000000000000000000000053020008A3
:1001000000000000530200085302000853020008D8
:1001100000000000000000000000000000000000DF
:10012000530200085302000853020008530200085B
:100130005302000800000000000000000000000062
:100140000000000000000000000000005302000852
:10015000530200085302000853020008530200082B
:1001600053020008530200080000000000000000D5
:10017000000000000000000000000000000000007F
:100180000000000053020008000000000000000012
:10019000530200085302000800F002F800F03CF897
:1001A0000AA090E8000C82448344AAF10107DA45D2
:1001B00001D100F031F8AFF2090EBAE80F0013F0E8
:1001C000010F18BFFB1A43F0010318470C20000071
:1001D0002C200000103A24BF78C878C1FAD8520702
:1001E00024BF30C830C144BF04680C6070470000B1
:1001F0000023002400250026103A28BF78C1FBD830
:10020000520728BF30C148BF0B6070471FB501F0CF
:10021000D1FF1FBD10B510BD00F0CFF81146FFF79C
:10022000F5FF01F0B2FF00F0EDF803B4FFF7F2FFC5
:1002300003BC00F0F1F80000094880470948004776
:10024000FEE7FEE7FEE7FEE7FEE7FEE7FEE7FEE786
:10025000FEE7FEE704480549054A064B70470000E3
:10026000911D0008990100087802002078080020FC
:10027000780400207804002053EA020C00F0698022
:100280002DE9F04B4FF00006002B1FBFB3FA83F5AA
:1002900003FA05F424FA05F65E4012BF1643B2FADB
:1002A00082F502FA05F4C5F120051EBF22FA05FC0D
:1002B00044EA0C04203556EA044C4FEA144418BFB3
:1002C000641C4FF000084FF00009904271EB030CE2
:1002D00039D3002919BFB1FA81F701FA07F6B0FA4C
:1002E00080F700FA07F6C7F120071EBF20FA07FCC7
:1002F00046EA0C062037B6FBF4FCA7EB0507103FD7
:1003000007F01F0BCBF120060CFA0BFB2CFA06F6BC
:1003100044BFB3460026202FA4BF5E464FF0000B1B
:100320005BEA060C08BF4FF0010B19EB0B09ABFBA6
:10033000027C48EB0608C01B06FB02CC0BFB03CC7F
:1003400071EB0C01C1E70B46024641464846BDE849
:10035000F08B13B54FF000004FF00001AFF30080B9
:10036000BDE81C4070474FF0000200B513469446AC
:100370009646203922BFA0E80C50A0E80C50B1F1FD
:100380002001BFF4F7AF090728BFA0E80C5048BF11
:100390000CC05DF804EB890028BF40F8042B08BFAF
:1003A000704748BF20F8022B11F0804F18BF00F8AB
:1003B000012B7047704770477047754600F028F86A
:1003C000AE4605006946534620F00700854618B042
:1003D00020B5FFF73FFFBDE820404FF000064FF08B
:1003E00000074FF000084FF0000B21F00701AC466A
:1003F000ACE8C009ACE8C009ACE8C009ACE8C00989
:100400008D4670470446AFF300802046FFF70DFF8E
:10041000004870471402002001491820ABBEFEE7D7
:100420002600020070470000464910B54A6822F4D1
:1004300040324A604A6843681A434A6001684A6821
:1004400022F480724A6001684A68036942EA032222
:100450004A6001684A6822F040724A6001684A684E
:1004600083681A434A6001688A6822F400628A60DD
:1004700001688A68C3681A438A60816A6FF0706293
:10048000D14201688A6822F070628A6001688A68D5
:100490000CD0836A1A438A6001688A6822F040524D
:1004A0008A6001688A68C36A1A4301E022F04052F8
:1004B0008A6001688A6822F002028A6001688A689C
:1004C000037E42EA43028A6090F820100029016806
:1004D0004A680FD042F400624A6001684A6822F418
:1004E00060424A6001684A68174C436A04EB433330
:1004F0001A4301E022F400624A600168CA6A22F4E9
:100500007002CA620168CA6A838B104C04EB035301
:100510001A43CA6201688A6822F400728A6001681C
:100520008A6890F8303042EA43228A6001688A681B
:1005300022F480628A6001688A68406942EA802009
:10054000886010BD0023014000E0FFFF0000F0FFC5
:10055000FEE7704772B6FEE778B50024009490F885
:100560003C20012A19D0012280F83C200A68072388
:100570000568092A13D9EE680A3A02EB4202934051
:100580009E43EE600B788A680A3B03EB43039A4074
:100590000368DD682A43DA6010E0022078BD2E6926
:1005A00002EB420293409E432E610B788A6803EB74
:1005B00043039A4003681D692A431A614A681F234E
:1005C000072A13D205686E6B521E02EB820293401B
:1005D0009E436E630A8893B20A79521E02EB82022E
:1005E00093400268556B2B43536327E005680D2A3F
:1005F00012D22E6BD21F02EB820293409E432E63D7
:100600000B790A88DB1F92B203EB83039A400368DD
:100610001D6B2A431A6311E0EE6A0D3A02EB820267
:1006200093409E43EE620B790A880D3B92B203EB36
:1006300083039A400368DD6A2A43DA621B4B05682C
:10064000194A9D420AD10D68122D07D1556825F42B
:1006500000055560556845F48005556005689D4264
:100660001DD1134D0B68AB4201D0112B17D153682C
:1006700023F480035360536843F400035360096814
:10068000A9420CD10B490C4A0968B1FBF2F101EB0C
:100690008101490000E0491E00910029FBD180F84A
:1006A0003C40002078BD00000023014000200140B4
:1006B000120000100C00002040420F0070B5040032
:1006C0004FF0000503D0206C002610B107E0012098
:1006D00070BD204600F01CF8666484F83C60206C15
:1006E000C00610D4206C20F4885040F00200206432
:1006F0002046FFF799FE6664206C20F0020040F06F
:100700000100206400E0012584F83C60284670BDAB
:1007100030B587B0044614216846FFF724FE184917
:10072000206888422AD117480025016841F4807169
:100730000160006800F48070059012481438016868
:1007400041F001010160016801F0010105910168BA
:1007500041F0020101600068032400F002000590EE
:10076000F8208DE831006946074800F011F8009440
:1007700069460648CDE9014500F00AF807B030BDEA
:1007800000200140443802400000024000040240C2
:100790002DE9F84FDFF8B8A10022012403254FF01E
:1007A0000F090AF1040BAAF1040E00BF0B6804FA4A
:1007B00002F63340B34273D10F7907F00307012FDC
:1007C00001D0022F16D187684FEA420805FA08FCCB
:1007D00027EA0C07D1F80CC00CFA08FC4CEA070C0D
:1007E000C0F808C04768B7430E79C6F300169640B4
:1007F0003E4346600E79F643B6070DD0C7685600F3
:1008000005FA06FC27EA0C07D1F808C00CFA06FC2A
:100810004CEA070CC0F80CC00E7906F00306022E55
:1008200010D1D60800EB8608D8F8206057074FEAA9
:10083000D76C09FA0CF7BE430F6907FA0CF7374378
:10084000C8F8207006684FEA420C05FA0CF7BE4360
:100850000F7907F0030707FA0CF7374307604E6874
:1008600016F4403F6DD03B4E376847F48047376001
:10087000366822F0030706F480460096364E07EBF2
:10088000060CDCF8086897073F0F09FA07F826EA14
:100890000806DFF8C880404503D14FF000081EE08D
:1008A0004FE0DFF8BC80404502D14FF0010816E070
:1008B000DFF8B080404502D14FF002080FE0DFF8CA
:1008C000A880404502D14FF0030808E0DFF89C8083
:1008D000404502D14FF0040801E04FF0070808FA44
:1008E00007F848EA0608CCF80888DAF800605746A6
:1008F000D1F804C09E435FEACC2C00D51E433E6075
:10090000DBF800605F46D1F804C09E435FEA8C2CA0
:1009100000D51E433E60DEF800607746D1F804C083
:100920009E435FEA8C3C00D51E433E60084F083F63
:100930003E68D1F804C09E435FEACC3C00D51E431C
:100940003E60521C102AFFF431AFBDE8F88F000062
:10095000083C0140443802400030014000000240A1
:100960000004024000080240000C02400010024057
:100970000AB1816170470904FBE700000148806803
:10098000704700000000002070B5040025D094F8E6
:100990003D00002520B984F83C50204600F0B8F80E
:1009A000242084F83D002068016821F001010160E5
:1009B0002068016841F4004101602068016821F469
:1009C0000041016000F000FA4D4A6168914201D88F
:1009D0004C4900E04C49884201D2012070BD4B498E
:1009E0002368B0FBF1F15E6826F03F060E435E60BF
:1009F0006368934206D94FF4967359434FF47A7360
:100A0000B1FBF3F12368491C1E6A26F03F0631430F
:100A100019626168914210D84900401EB0FBF1F2A2
:100A2000521CC2F30B02042A01D2042022E0B0FBC4
:100A3000F1F0401CC0F30B001CE0A268F2B301EB24
:100A4000C10303EB0116431EB3FBF6F35B1C43F437
:100A500080431B0549D092B301EBC10202EB0111A7
:100A6000401EB0FBF1F0401CC0F30B0040F480408E
:100A700040F400402168CA694CF6FF739A43104362
:100A8000C861D4E9071001432068026822F0C0025F
:100A900011430160D4E9030101432068826848F2F0
:100AA000FF339A4311438160D4E90501084321686B
:100AB000CA6822F0FF021043C86001E00EE016E0B1
:100AC0002068016841F0010101602564202084F85C
:100AD0003D00256384F83E50002070BD01EB4106C7
:100AE000431EB3FBF6F35B1CB3E70120C2E701EB47
:100AF0004101401EB0FBF1F0401CC0F30B00B7E712
:100B0000A086010080841E0000093D0040420F00C5
:100B100010B586B0044614216846FFF724FC14493A
:100B20002068884221D113480021026842F0020265
:100B30000260006800F0020005904FF440700090E1
:100B40001220CDE90101032003900420049069469E
:100B50000948FFF71DFE07481030016841F40011F5
:100B60000160006800F40010059006B010BD0000A0
:100B700000540040303802400004024002488168BE
:100B80000278114481607047000000200B4810B5C6
:100B9000016841F400710160016841F48061016005
:100BA000016841F480710160032000F061F80F20BA
:100BB00000F006F800F024F8002010BD003C0240D0
:100BC00070B50D4D04464FF47A712878B1FBF0F002
:100BD0000A490968B1FBF0F000F0FEFA48B9102CA0
:100BE00007D200222146501E00F022F800206C603F
:100BF00070BD012070BD0000000000200C0000202E
:100C00000A4808B5016841F480410160006800F4B9
:100C1000804000900548001F016841F0805101604C
:100C2000006800F08050009008BD00004438024089
:100C3000F0B40E4B1B680C46C3F30223C3F1070547
:100C4000042D00D90425191D072901D2002300E035
:100C5000DB1E012606FA05F1491E214099409E40FF
:100C6000761E16403143F0BC01F07FBA0CED00E077
:100C7000064900F0070208684FF6FF03184040EAF3
:100C80000220034A10430860704700000CED00E0AA
:100C90000000FA052DE9F0470E46050065D0DFF8A3
:100CA0001481D8F80000F7B200F00700B04207D274
:100CB00088F80070D8F8000000F00700B04254D166
:100CC00028683D4C810712D5400703D5206840F4C1
:100CD000E05020602878000703D5206840F4604089
:100CE00020602068A96820F0F00008432060287880
:100CF000C0072DD0304968680839012812D0022871
:100D000013D0032811D00968890700292DDA21683A
:100D100021F0030101432160FFF730FE814641F2DB
:100D2000883A0EE009688903EFE709688901ECE772
:100D3000FFF724FEA0EB0901514502D90320BDE8CD
:100D4000F0872068696800F00C00B0EB810FEFD1EC
:100D5000D8F80010404601F00701B14207D90770EA
:100D6000006800F00700B04201D00120E7E72878D2
:100D7000400705D52068E96820F4E050084320606A
:100D80002878000706D52068296920F4604040EAE9
:100D9000C100206000F038F82168084AC1F303114F
:100DA000515CC8400649086006480068FFF708FF24
:100DB0000020C4E7003C024008380240BE21000881
:100DC0000C00002004000020044805490068096860
:100DD000044AC1F38221515CC84070470C000020D6
:100DE00008380240CE210008044805490068096817
:100DF000044AC1F34231515CC84070470C000020E6
:100E000008380240CE210008154810B5006810F0DF
:100E10000C02144813D01449042A0FD0082A0ED10A
:100E20000F4C241F2268236802F03F025B0207D5A3
:100E30002068C0F38810A0FB010106E0084610BD41
:100E40002168C1F38811A1FB00010023FFF714FA08
:100E50002168C1F30141491C4900B0FBF1F010BD0C
:100E6000083802400024F40040787D012DE9F84F55
:100E700004006ED02078DFF84C93C007A9F1040578
:100E80004AD009F104000168C1F38101012908D0A9
:100E90000068C0F3810002280AD1D9F8000040029E
:100EA00006D52868800337D560680028E1D033E094
:100EB0006068B0F5803F10D0B0F5A02F286810D042
:100EC00020F480302860286820F480202860606842
:100ED000A8B1FFF753FD06460DE0286840F48030C6
:100EE000F4E740F480202860F7E700BFFFF746FDF5
:100EF000801B642873D828688003F7D50CE0FFF7BF
:100F00003DFD064605E000BFFFF738FD801B642865
:100F1000F0D828688003F7D42078DFF8AC82800707
:100F20004FF0000A3ED5A748001D016811F00C0FD4
:100F300008D00068C0F3810002280BD1D9F8000066
:100F4000400207D42868800716D5E068012800D140
:100F500012E033E1E068B8B10120C8F80000FFF703
:100F60000DFD064605E000BFFFF708FD801B0228C7
:100F7000C0D828688007F7D52868216920F0F800D4
:100F800040EAC10028600DE0C8F800A0FFF7F6FCB9
:100F9000064604E0FFF7F2FC801B02281FD82868F1
:100FA0008007F7D42078000722D5864F87486169EB
:100FB000703771B101210160FFF7E0FC064604E0E3
:100FC000FFF7DCFC801B022809D838688007F7D5BA
:100FD0000EE0C0F800A0FFF7D1FC064605E082E075
:100FE000FFF7CCFC801B02287DD838688007F7D437
:100FF0002078400768D5DFF8CCB100270BF13C0B17
:10100000DBF80000C0000BD4DBF8001041F0805189
:10101000CBF80010DBF80000012700F080500090B2
:101020006B4E3068C00510D4306840F4807030607A
:10103000FFF7A4FC009005E0FFF7A0FC0099401A20
:10104000022850D83068C005F6D55E4EA0686C36D0
:1010500001280FD00528306810D020F00100306042
:10106000306820F004003060A068B8B1FFF786FC5B
:1010700000900FE0306840F00100F4E740F0040019
:101080003060F7E7FFF77AFC0099411A41F28830A7
:10109000814266D830688007F4D50EE0FFF76EFC19
:1010A000009007E0FFF76AFC0099411A41F288308E
:1010B000814256D830688007F4D42FB1DBF8001095
:1010C00021F08051CBF80010A069C8B33D49091D3B
:1010D0000968C1F3810102294AD00228504607D08D
:1010E000C8F8600000E03CE0FFF748FC04463BE045
:1010F0004746C8F86000FFF741FC064605E000BF20
:10110000FFF73CFC801B02282BD828688001F7D40D
:10111000D4E907010843A16A2E4A490802EB0141BC
:10112000626A41EA8211084394F82C1040EA016196
:10113000C9F8001001203866FFF720FC044606E0DD
:101140003EE000BFFFF71AFC001B022809D8286800
:101150008001F7D534E000BFFFF710FC001B022828
:1011600002D90320BDE8F88F28688001F4D427E075
:101170000128F7D0D9F80000E26900F4800191421B
:101180001CD1226A00F03F01914217D147F6C0718D
:10119000626A0140B1EB821F10D1A26A4FF0FF33A7
:1011A00000F4403103EB5202B1EB024F06D194F848
:1011B0002C1000F07060B0EB016F01D00120D1E77E
:1011C0000020CFE70438024000004742800E47422B
:1011D000007000400000FFFF10B5401EB0F1807F9E
:1011E00001D3012010BD4FF0E02460610F21601792
:1011F00000F0BBFF0020A06107202061002010BD8F
:1012000010B590F83C20012A22D0012280F83C2021
:10121000CA688C6822F4407222434C6822F48062CF
:1012200022430C6822F4006222430C6922F48052AB
:1012300022434C6922F400522243C969002322F45C
:1012400080420A4301684A6480F83C30002010BDA7
:10125000022010BD70B588B00E46040004D094F88A
:101260003D00002518B107E0012008B070BD84F8EA
:101270003C50204600F056F8022084F83D00211D25
:10128000206800F08DFDB36831680322206800F00B
:101290009DFE2068816921F00C01816120688169CF
:1012A0007268114381612068416841F080014160AA
:1012B0002068816821F0700181602068816841F0B8
:1012C000400181602068816821F007018160206809
:1012D000816841F0040181607020059504950695B0
:1012E000039502950090F06801906946206800F02F
:1012F000E1FD2068416821F070014160206841688B
:1013000041F050014160012084F8460084F83E001D
:1013100084F83F0084F8420084F8430084F83D00DC
:101320000020A2E710B586B0044614216846FFF7F6
:101330001AF82068B0F1804F1FD1114800210268CF
:1013400042F001020260006800F0010005900C48C4
:101350001038026842F001020260006800F00100EB
:101360000590072000900220CDE9010101200390A3
:10137000049069460348FFF70BFA06B010BD000061
:10138000403802400000024070B590F83C20012A2D
:101390002CD0012480F83C40022280F83D200368D4
:1013A0005A689D6822F070060A6832435A60104BF2
:1013B00002689A420ED0B2F1804F0BD00D4B9A4288
:1013C00008D00D4B9A4205D00C4B9A4202D00C4BE0
:1013D0009A4204D1496825F080031943916080F84E
:1013E0003D40002180F83C10084670BD022070BDD1
:1013F000000001400004004000080040000C0040D4
:101400000040014010B5040003D094F83D0010B135
:1014100007E0012010BD002084F83C00204600F0C9
:101420001FF8022084F83D00211D206800F0B8FC60
:10143000012084F8460084F83E0084F83F0084F8D8
:10144000400084F8410084F8420084F8430084F8A6
:10145000440084F8450084F83D00002010BD0000E1
:1014600010B586B0044614216846FEF77CFF134988
:101470002068884220D112480021026842F001020F
:101480000260006800F0010005900D481438026801
:1014900042F002020260006800F0020005904FF482
:1014A000805000900220CDE901010120CDE9031018
:1014B00069460448FFF76CF906B010BD0000014012
:1014C000443802400004024070B5044690F83C00E5
:1014D0000025012817D0012684F83C60022084F8FA
:1014E0003D002068826822F0770222F47F42826009
:1014F0000868502838D00DDC20284FD005DC90B388
:10150000102811D14AE0022070BD302846D0402872
:101510000AD13BE060282FD070280DD0B0F5805F55
:1015200003D0B0F5005F12D0012584F83D600020A3
:1015300084F83C00284670BDCB68D1E901212068C1
:1015400000F07EFC2068816841F0770109E0CB68FB
:10155000D1E90121206800F073FC2068816841F422
:1015600080418160E1E719E0CA684968206800F0BD
:101570001BFD5021206806E0CA684968206800F019
:101580005BFD6021206800F065FCCEE7CA68496811
:10159000206800F009FD40212068F4E72268014638
:1015A0001046F0E72DE9F0410D46040003D094F811
:1015B0003D0018B108E00120BDE8F081002084F86A
:1015C0003C00204600F040F8022084F83D002068EE
:1015D000816844F2070291438160211D206800F078
:1015E000DFFB226890689169166A2B68AF69034334
:1015F00040F20330814341EA0721A868EF690843BC
:101600004FF6FC418843E96840EA07200143286916
:101610002F6A000140EA0730084369686D6926F0C7
:10162000AA0646EA0515294393602268906154F89A
:10163000460B0162012004F81F09E0752076E07670
:101640002077A0750020B7E710B586B004461421B6
:101650006846FEF788FE1249206888421ED111486C
:101660000021026842F004020260006800F00400F9
:1016700005900C481038026842F0020202600068CF
:1016800000F002000590C02000900220CDE9010189
:10169000CDE9031069460448FFF77AF806B010BD9B
:1016A000000800404038024000040240F0B587B016
:1016B000044614216846FEF756FE18492068884201
:1016C0002AD117480024016841F002010160016835
:1016D00001F002010591016841F00101016000681B
:1016E000022500F0010005904FF46040CDE90005AF
:1016F00002AA0326012782E8D00069460948FFF7BD
:1017000047F84FF4E060CDE9000502AA694682E897
:10171000D0000548FFF73CF807B0F0BD00000140DD
:1017200030380240000402400000024070B5044618
:1017300090F83C0000260D4601280FD0012084F8C7
:101740003C006AB1042A1DD0082A2FD00C2A3FD0B1
:101750000126002084F83C00304670BD022070BD98
:10176000206800F07FFB2068816941F008018161F9
:101770002068816921F004018161206881692A69FA
:10178000114311E0206800F095FB2068816941F465
:10179000006181612068816921F480618161206834
:1017A00081692A6941EA02218161D2E7206800F05B
:1017B000ADFB2068C16941F00801C1612068C169C1
:1017C00021F00401C1612068C1692A69114311E057
:1017D000206800F0C7FB2068C16941F40061C16165
:1017E0002068C16921F48061C1612068C1692A69EA
:1017F00041EA0221C161ACE710B5040003D094F8BE
:101800003D0010B107E0012010BD002084F83C002D
:10181000204600F01EF8022084F83D00211D2068BB
:1018200000F0BEFA012084F8460084F83E0084F8F7
:101830003F0084F8400084F8410084F8420084F8B6
:10184000430084F8440084F8450084F83D000020FB
:1018500010BD704770B5040004D094F84100002515
:1018600010B106E0012070BD84F84050204600F021
:1018700023F8242084F841002068C16821F4005135
:10188000C160204600F0EAFB2068016921F4904124
:1018900001612068416921F02A0141612068C16825
:1018A00041F40051C1606564202084F8410084F84F
:1018B00042006563002070BD2DE9F04186B004460A
:1018C00014216846FEF74FFD2C492B4F2368002456
:1018D0002A4A14390225032629484FF00808BB423A
:1018E00029D1136843F010031360126802F010024C
:1018F00005920A6842F001020A600A6802F00102D9
:1019000005920A6842F002020A60096802AB01F01F
:1019100002010591A903CDE90015072783E8D0004E
:101920006946FEF735FF02AB694683E8D000CDE992
:10193000008514481AE0144FBB4219D1136843F0D4
:1019400020031360126802F0200205920A6842F038
:1019500001020A60096802AB01F0010105914FF430
:10196000C051CDE9001583E850016946FEF710FF2C
:1019700006B0BDE8F081000000100140443802408C
:10198000000002400004024000140140FEE7000095
:101990007FB50024154800940194029412490394E1
:1019A00001604FF48031C0E901140461047680F8CD
:1019B00020400F49C0E90A140125C561C46080F8C0
:1019C00030404561FEF77AFE08B1FEF7C3FD032003
:1019D000CDE90005694602940448FEF7BDFD0028E4
:1019E00001D0FEF7B7FD7FBD0020014010000020B0
:1019F0000100000FF0B587B014216846FEF7B3FC74
:101A000021480024016841F004010160016801F0EF
:101A100004010591016841F080010160016801F055
:101A200080010591016841F001010160016801F048
:101A300001010591016841F0020101600068134E47
:101A400000F002004FF40055059000222946304670
:101A5000FEF78EFF0E4F002214213846FEF788FF56
:101A600000950125CDE90154694630460394FEF7FF
:101A70008FFE14200090CDE9015469463846039446
:101A8000FEF786FE07B0F0BD303802400008024085
:101A9000000402400D4810B50B4901600C4941603B
:101AA00000214FF480428160C0E9031241618161ED
:101AB000C1610162FEF768FF002803D0BDE8104055
:101AC000FEF748BD10BD0000005400405800002043
:101AD000A086010030B595B000240F9410941194A5
:101AE000129413941C2168461494FEF73CFC2021A8
:101AF00007A8FEF738FC34483249C0E900144FF615
:101B0000FF71C0E90241046144618461FFF77AFC1E
:101B100008B1FEF71FFD4FF480550FA92A480F9515
:101B2000FFF7D2FC08B1FEF715FD2748FFF764FE6A
:101B300008B1FEF70FFD139413A923481494FFF77F
:101B400023FC08B1FEF706FD6020CDE900040294F5
:101B5000039404940594002269461B480694FFF7F9
:101B6000E5FD08B1FEF7F6FC042269461648FFF7CA
:101B7000DDFD08B1FEF7EEFC082269461248FFF7CA
:101B8000D5FD08B1FEF7E6FC0C2269460E48FFF7CA
:101B9000CDFD08B1FEF7DEFC07944FF40050099428
:101BA0000C900894CDE90A4507A907480E94FFF761
:101BB00027FB08B1FEF7CEFC0348FFF777FD15B011
:101BC00030BD000000000140AC00002010B586B020
:101BD00000241148009401940294039404944FF05B
:101BE00080410594C0E90014611EC0E9024104610E
:101BF00069468461FFF72EFB08B1FEF7ABFC50206D
:101C0000CDE9040404A90448FFF7BEFB002801D075
:101C1000FEF7A0FC06B010BDF400002010B58CB09B
:101C200024216846FEF79FFB0024154809941349B8
:101C30000A94C0E900144FF6FF71C0E90241046143
:101C400084610120CDE90004CDE902040494CDE9CA
:101C50000540079469460A480894FFF7A3FC08B1B9
:101C6000FEF778FC099409A905480A94FFF78CFB54
:101C7000002801D0FEF76EFC0CB010BD000800403B
:101C80003C0100200C4810B50A4901604FF4E131D5
:101C90004160002181600C22C160C0E904128161B1
:101CA000C161FFF7D7FD002803D0BDE81040FEF763
:101CB00051BC10BD00100140840100200C4810B53B
:101CC0000A4901604FF4E1314160002181600C223A
:101CD000C160C0E904128161C161FFF7BBFD00284A
:101CE00003D0BDE81040FEF735BC10BD0014014024
:101CF000CC010020FEE7FEE770477047FEF73EBFCD
:101D000030B593B030216846FEF72DFB14210CA8A6
:101D1000FEF729FB1C480025016841F08051016055
:101D2000006800F0805011901848016841F440416B
:101D300001600068022400F44040119001200090EE
:101D4000000401908001CDE906400C20089060203D
:101D5000CDE9090404200B906846FFF787F808B125
:101D600072B6FEE70CA90F2081E831004FF48050D5
:101D7000CDE90F0503210CA8FEF78CFF002801D048
:101D800072B6FEE713B030BD40380240007000402C
:101D90000248016841F470010160704788ED00E07D
:101DA000F0B502681F4B204C204D214E4FF0804C67
:101DB000984207D0604505D0A04203D0A84201D088
:101DC000B04203D122F070074A683A43984210D0DB
:101DD00060450ED0A0420CD0A8420AD0B04208D034
:101DE000144CA04205D0144CA04202D0134CA04287
:101DF00003D122F44074CA6822434C6922F0800265
:101E000022438C68C4620C688462984201D10969DB
:101E10000163016841F00401016001214161026038
:101E2000F0BD000000000140000400400008004038
:101E3000000C0040004001400044014000480140C7
:101E400010B5846842EA032224F47F440A43224303
:101E5000826010BD826822F070020A4342F00701DE
:101E60008160704730B5036A026A22F001020262A3
:101E70004268846924F073050C682C4323F0020542
:101E80008B682B430A4DA8420BD123F00805CB6881
:101E900022F440722B434D6923F0040315438A69F1
:101EA0002A434260846149684163036230BD000097
:101EB0000000014030B5026A036A23F01003036298
:101EC000436884690D6824F4E64444EA05248D6877
:101ED00022F0200242EA05120B4DA8420ED1CD6835
:101EE00022F0800242EA05124D6923F4406343EA7E
:101EF00085038D6922F0400243EA850343608461D3
:101F000049688163026230BD0000014030B5036A58
:101F1000026A22F4807202624268C46923F4007388
:101F200024F073050C682C438D6843EA05230C4D9F
:101F3000A8420ED1CD6823F4006343EA05234D691E
:101F400022F4405242EA05128D6923F4806342EA8A
:101F500005124260C4614968C163036230BD00007C
:101F60000000014030B5046A026A22F48052026225
:101F70004268C3690D6823F4E64343EA05238D688C
:101F800024F4005444EA0534064DA84204D14D69B6
:101F900022F4804242EA85124260C36149680164CA
:101FA000046230BD0000014010B5036A046A24F0E9
:101FB00001040462846924F0F00444EA021423F06A
:101FC0000A020A438461026210BD000070B5056A0E
:101FD000046A24F0010404628469124EB0420ED0F7
:101FE000B0F1804F0BD0104EB04208D00F4EB0422F
:101FF00005D00F4EB04202D00E4EB04203D124F0B5
:102000000304144301E044F001041A0724F0F0042F
:1020100044EA126225F00A0301F00A0119438261C1
:10202000016270BD00000140000400400008004053
:10203000000C00400040014010B5036A046A24F01F
:1020400010040462846923F0A00324F4704444EA79
:10205000023243EA01118261016210BD70B504468B
:1020600000680169E26821F440511143016121696E
:10207000A068E26908436169114308432168CA689E
:1020800049F20C639A430243CA6020684169A2691D
:1020900021F440711143416131492068884202D0E6
:1020A0003049884202D1FEF79FFE01E0FEF78CFE28
:1020B000E2690023192164253226B2F5004F6268D7
:1020C00028D0A0FB0101930F9200FEF7D5F801463E
:1020D000B0FBF5F06FF01802504301EB800006EB07
:1020E0000010B0FBF5F000F0F002B1FBF5F002EBF0
:1020F0000012B1FBF5F06FF01803584301EB8000BC
:1021000006EB0010B0FBF5F000F00F002168104462
:10211000886070BDA0FB010192185B41FEF7ACF82E
:102120000146B0FBF5F00201B1FBF5F06FF01803CA
:10213000584301EB800006EBC000B0FBF5F000F067
:10214000F80002EB4002B1FBF5F0584301EB8000D0
:1021500006EBC000B0FBF5F000F00700D6E700008A
:102160000010014000140140FEE70907090E002895
:1021700004DB00F1E02080F80014704700F00F004D
:1021800000F1E02080F8141D7047FEF7FFFCFFF718
:10219000B7FDFFF72FFCFFF7FBFBFFF77BFCFFF71B
:1021A00099FCFFF713FDFFF739FDFFF76BFDFFF714
:1021B00085FDFEE74FF04070E1EE100A7047000029
:1021C00000000000000001020304060708090000E7
:1021D0000000010203040000F821000800000020B4
:1021E00010000000D40100080822000810000020A0
:1021F00068080000F0010008010000001000000065
:08220000000000000024F400BE
:040000050800019955
:00000001FF
